:0400000026EF00F0F7
:100008005D82FACF01F0FBCF02F0F2AC0EEF00F008
:1000180010EF00F020EF00F076AC15EF00F017EFCE
:1000280000F020EF00F077AC1CEF00F01EEF00F0BE
:1000380020EF00F037EC0DF002C0FBFF01C0FAFF23
:080048005D92110047EF0DF07D
:0F1000000053746174652069732025640A000031
:1010100020C036F021C037F022C038F023C039F0AC
:1010200024C03AF025C03BF026C03CF027C03DF07C
:101030003DBE1DEF08F020EF08F0010E21EF08F093
:10104000000E3E6E3E50D8B428EF08F02AEF08F0AC
:101050003AEF08F03D1E3C1E3B1E3A1E391E381E5C
:10106000371E366C000E3722382239223A223B22B4
:101070003C223D22000163BF48EF08F0635106E1C6
:101080006205D8B046EF08F048EF08F04EEF08F0E0
:10109000000E336E010E326E52EF08F062C032F075
:1010A00063C033F060C034F061C035F03E50D8B456
:1010B0005CEF08F05EEF08F075EF08F03406D8A09A
:1010C00035063E50D8A467EF08F069EF08F06FEFDF
:1010D00008F0000E316E2B0E306E73EF08F0000E2C
:1010E000316E2D0E306E30C03EF0000E406E1F0E81
:1010F0003F6E000E856FF9EF08F03F06D8A040065E
:10110000660E3F24D96E000E4020DA6E36C003F022
:1011100037C004F038C005F039C006F03AC007F017
:101120003BC008F03CC009F03DC00AF00A0E0B6E4F
:10113000000E0C6E000E0D6E000E0E6E000E0F6E89
:10114000000E106E000E116E000E126E0AEC0AF008
:1011500003C028F004C029F005C02AF006C02BF017
:1011600007C02CF008C02DF009C02EF00AC02FF0E7
:1011700028C015F029C016F0A1EC0CF01550300F66
:10118000DF6E3206D8A033063406D8A0350636C046
:1011900003F037C004F038C005F039C006F03AC09B
:1011A00007F03BC008F03CC009F03DC00AF00A0E51
:1011B0000B6E000E0C6E000E0D6E000E0E6E000E0D
:1011C0000F6E000E106E000E116E000E126E46ECC9
:1011D00009F003C036F004C037F005C038F006C08F
:1011E00039F007C03AF008C03BF009C03CF00AC033
:1011F0003DF040BE04EF09F0405008E13F04D8A0A4
:1012000004EF09F006EF09F022EF09F0365037102D
:10121000381039103A103B103C103D10D8A413EF91
:1012200009F015EF09F07DEF08F033BE22EF09F069
:10123000335006E13204D8B020EF09F022EF09F074
:101240007DEF08F03E50D8B428EF09F02AEF09F0FE
:1012500035EF09F03F06D8A04006660E3F24D96E50
:10126000000E4020DA6E3EC0DFFF1EC013F01FC02C
:1012700014F0660E3F24156E000E4020166E34C02A
:1012800017F035C018F01BEC0CF01200000E146EB5
:1012900012BE4FEF09F04DEF09F061EF09F0121E99
:1012A000111E101E0F1E0E1E0D1E0C1E0B6C000EAE
:1012B0000C220D220E220F22102211221222010EC8
:1012C000146E0ABE68EF09F066EF09F07AEF09F0D4
:1012D0000A1E091E081E071E061E051E041E036C9C
:1012E000000E0422052206220722082209220A22D1
:1012F000010E141A20EE15F0070EDE6AE806FDE274
:101300000B500C100D100E100F10101011101210A9
:10131000D8B48DEF09F08FEF09F0E1EF09F0010E7D
:10132000136E9DEF09F0D8900B360C360D360E3645
:101330000F36103611361236132A12AEA2EF09F00C
:10134000A4EF09F093EF09F0D8901536163617364A
:10135000183619361A361B361C360B50035C0C50E7
:1013600004580D5005580E5006580F50075810508D
:1013700008581150095812500A58D8A0C2EF09F065
:10138000C4EF09F0D5EF09F00B50035E0C50045A7E
:101390000D50055A0E50065A0F50075A1050085A51
:1013A0001150095A12500A5A1580D890123211322F
:1013B00010320F320E320D320C320B32132EA4EFDC
:1013C00009F01450D8B4E7EF09F0E9EF09F0F9EFAC
:1013D00009F01C1E1B1E1A1E191E181E171E161E93
:1013E000156C000E16221722182219221A221B220F
:1013F0001C2215C003F016C004F017C005F018C079
:1014000006F019C007F01AC008F01BC009F01CC094
:101410000AF01200000E146E0ABE13EF0AF011EF6C
:101420000AF025EF0AF00A1E091E081E071E061EF6
:10143000051E041E036C000E04220522062207224C
:10144000082209220A22010E146E12BE2CEF0AF0A5
:101450002AEF0AF03CEF0AF0121E111E101E0F1E9A
:101460000E1E0D1E0C1E0B6C000E0C220D220E22E9
:101470000F221022112212220B500C100D100E10F0
:101480000F10101011101210D8B449EF0AF04BEFE2
:101490000AF093EF0AF0010E136E59EF0AF0D8909C
:1014A0000B360C360D360E360F3610361136123618
:1014B000132A12AE5EEF0AF060EF0AF04FEF0AF067
:1014C0000B50035C0C5004580D5005580E50065834
:1014D0000F500758105008581150095812500A5808
:1014E000D8A075EF0AF077EF0AF087EF0AF00B50FB
:1014F000035E0C50045A0D50055A0E50065A0F50F8
:10150000075A1050085A1150095A12500A5AD890C6
:101510001232113210320F320E320D320C320B32C7
:10152000132E60EF0AF01450D8B499EF0AF09BEF35
:101530000AF0ABEF0AF00A1E091E081E071E061E5F
:10154000051E041E036C000E04220522062207223B
:10155000082209220A2203C003F004C004F005C0D7
:1015600005F006C006F007C007F008C008F009C083
:1015700009F00AC00AF0120043C0D9FF44C0DAFFE4
:10158000DECFF6FFDDCFF7FF0800F550250AD8A41F
:10159000CCEF0AF0CEEF0AF04EEF0BF043C0D9FFCC
:1015A00044C0DAFFDE2A000EDD22000E0001616F6A
:1015B000000E606F60C05CF06269636943C0D9FF70
:1015C00044C0DAFFDECF51F0DDCF52F051C0F6FF5C
:1015D00052C0F7FF0800F550640AD8B4F2EF0AF0E1
:1015E000F4EF0AF002EF0BF051C0F6FF52C0F7FF24
:1015F0000800F550690AD8A400EF0BF002EF0BF0D9
:1016000045EF0BF045C0D9FF46C0DAFFDFCF47F00A
:10161000020EDE26DFCF48F0000EDD2247C0D9FFE4
:1016200048C0DAFFDECF49F0DDCF4AF0000E4ABEF7
:10163000FF0E4B6E4C6E4D6E4E6E4F6E506E010E29
:101640005124476E000E5220486E43C0D9FF44C05B
:10165000DAFF47C0DEFF48C0DDFF41C01EF042C0D8
:101660001FF049C020F04AC021F04BC022F04CC00E
:1016700023F04DC024F04EC025F04FC026F050C0DE
:1016800027F008EC08F062EF0BF043C0D9FF44C02C
:10169000DAFFDE2A000EDD2262EF0BF043C0D9FF35
:1016A00044C0DAFFDECFF6FFDDCFF7FF0800F550CC
:1016B000036E046A41C005F042C006F0D0EC0BF0A6
:1016C00045EF0BF01200800E6F6E6E50E00B800A3B
:1016D000D8A46DEF0BF06FEF0BF065EF0BF0000E81
:1016E000726E200E706E000E0E01FA6F000EFB6F10
:1016F000000EF86F000EF96F000EFE6F000EFF6F08
:10170000000EFC6F000EFD6F000EE26F000EE36F27
:10171000000EE06F000EE16F000EE66F000EE76F47
:10172000000EE46F000EE56F000EEA6F000EEB6F27
:10173000000EE86F000EE96F000EEE6F000EEF6F07
:10174000000EEC6F000EED6F000EF26F000EF36FE7
:10175000000EF06F000EF16F000EF66F000EF76FC7
:10176000000EF46F000EF56F180E436F980E446F65
:10177000010E456FE20E036E1A0E046E67EC0DF05B
:10178000779C768C000E6F6E6ECF05F0E00E05161E
:10179000D8A4CDEF0BF0CFEF0BF0C4EF0BF012009D
:1017A00005500610D8B4D7EF0BF0D9EF0BF0E2EFED
:1017B0000BF005500610D8A4E0EF0BF0E2EF0BF0B1
:1017C000E7EF0BF0035070EC0DF01AEF0CF020EE89
:1017D00009F00550D9260650DA22DE50DE10D8B4C2
:1017E000F4EF0BF0F6EF0BF011EF0CF020EE09F038
:1017F0000550D9260650DA2210EE03F00550E126F6
:101800000650E222DE50E65CE650800A0B6EDE50A7
:10181000800A0B58D8B00FEF0CF011EF0CF01AEF54
:101820000CF020EE03F00550D9260650DA22DE2A0D
:10183000000EDD22120018BE20EF0CF022EF0CF09B
:1018400028EF0CF017C01CF018C01DF02CEF0CF0A6
:10185000000E1D6E000E1C6E000E1B6E000E1A6E2A
:101860003EEF0CF0000E046E200E036E13C005F068
:1018700014C006F0D0EC0BF01A4A1B2A1C501A5C5C
:101880001B50800A196E1D50800A1958D8A04BEFC2
:101890000CF04DEF0CF032EF0CF015C00CF016C050
:1018A0000DF013C00EF014C00FF07FEC0CF012001E
:1018B00055C059F056C05AF06CEF0CF053C041F0CF
:1018C00054C042F0590E436E000E446E57C045F0AE
:1018D00058C046F0BCEC0AF059C0F6FF5AC0F7FFFA
:1018E0000800F5500009D8A478EF0CF07AEF0CF05E
:1018F0005EEF0CF0000E546E000E536E1200000EE0
:10190000126E000E116E90EF0CF010C003F0046A1E
:101910000EC005F00FC006F0D0EC0BF0114A122AF1
:1019200011500C24D96E12500D20DA6EDF50106E5B
:101930001050D8A49EEF0CF0A0EF0CF085EF0CF047
:10194000120016BEAEEF0CF0165006E11504D8B02A
:10195000ACEF0CF0AEEF0CF0BCEF0CF015C017F0D4
:1019600016C018F0171E181E174A182A17C015F0AF
:1019700018C016F0C0EF0CF015C015F016C016F028
:101980001200000E8D6E000E8C6E000E896E000E21
:101990008A6E000E8B6E000E966EEF0E926ECB0E60
:1019A000936E1F0E946E9568E00E0F015D6F7B0EB7
:1019B0005C6F000E5B6FF18E120055EC0DF06CEC5D
:1019C0000DF0000E00018D6FFA0E8C6F010EF5EC1C
:1019D0000CF0000E00018D6FFA0E8C6F000EF5EC0E
:1019E0000CF0E1EF0CF026EF00F05B6E5BB002D084
:1019F000809001D080808CC003F08DC004F00CEC8E
:101A00000DF0010E0001866F100E876F5BC088F02D
:101A1000896B23EC0DF0120015EF0DF0030E056E2F
:101A2000980EE82EFED7052EFCD70306D8A0040694
:101A3000032806E10428D8A420EF0DF022EF0DF0D2
:101A40000EEF0DF01200880E00018A6F000E8B6FF2
:101A5000000E536E000E546E86C055F087C056F0CF
:101A60008A0E576E000E586E58EC0CF0120002D819
:101A700045EF0DF005000001FA6E6451FD6E6551F1
:101A8000FE6EF850FF6EFA501200779C120000EEC6
:101A900060F0260EEE6AE806FDE15C6A5D905D92FC
:101AA000000EF86E0001DDEF0CF06EEC0DF0C1ECF5
:101AB0000CF05EEC0DF063EC0BF01200600ED36ED8
:101AC000000ED26E000E9B6E000E9A6E120003C0C6
:101AD00064F004C065F0120092901200D09E1200D3
:041AE00012001200DE
:020000040020DA
:08000000FFFFFFFFFFFFFFFF00
:020000040030CA
:0E00000015087F7CFF8991FF0FC00FE00F40B5
:00000001FF
