:0400000026EF00F0F7
:100008003982FACF01F0FBCF02F0F2AC0EEF00F02C
:1000180010EF00F020EF00F076AC15EF00F017EFCE
:1000280000F020EF00F077AC1CEF00F01EEF00F0BE
:1000380020EF00F04DEC0DF002C0FBFF01C0FAFF0D
:08004800399211005CEF0DF08C
:0F1000000053746174652069732025640A000031
:10101000000E176E000E186E000E196E000E1A6E7E
:101020000F0120B716EF08F018EF08F092EF08F064
:1010300020EE01F01550D9261650DA22DECF03F04B
:10104000DECF04F0DECF05F0DECF06F015C0D9FF0D
:1010500016C0DAFFDF50076E170E086E000E096E1D
:10106000180E0A6E000E0B6E190E0C6E000E0D6E31
:101070001A0E0E6E000E0F6EBFEC0AF017C023FFA3
:1010800018C024FF19C021FF1AC022FF20EE05F06E
:101090001550D9261650DA22DF500F01256F20EEA9
:1010A00006F01550D9261650DA22DF50266F20EEB2
:1010B00007F01550D9261650DA22DF50276F20EEA0
:1010C00008F01550D9261650DA22DF50286F20EE8E
:1010D00009F01550D9261650DA22DF50296F20EE7C
:1010E0000AF01550D9261650DA22DF502A6F20EE6A
:1010F0000BF01550D9261650DA22DF502B6F20EE58
:101100000CF01550D9261650DA22DF502C6F20EE45
:101110000DF01550D9261650DA22DF502D6F20879A
:1011200094EF09F010B797EF08F099EF08F013EF7C
:1011300009F020EE01F01550D9261650DA22DECF44
:1011400003F0DECF04F0DECF05F0DECF06F015C0F1
:10115000D9FF16C0DAFFDF50076E170E086E000EBB
:10116000096E180E0A6E000E0B6E190E0C6E000E34
:101170000D6E1A0E0E6E000E0F6EBFEC0AF017C049
:1011800013FF18C014FF19C011FF1AC012FF20EE80
:1011900005F01550D9261650DA22DF500F01156FD1
:1011A00020EE06F01550D9261650DA22DF50166FC1
:1011B00020EE07F01550D9261650DA22DF50176FAF
:1011C00020EE08F01550D9261650DA22DF50186F9D
:1011D00020EE09F01550D9261650DA22DF50196F8B
:1011E00020EE0AF01550D9261650DA22DF501A6F79
:1011F00020EE0BF01550D9261650DA22DF501B6F67
:1012000020EE0CF01550D9261650DA22DF501C6F54
:1012100020EE0DF01550D9261650DA22DF501D6F42
:10122000108790EF08F000B718EF09F01AEF09F0F7
:1012300094EF09F020EE01F01550D9261650DA226D
:10124000DECF03F0DECF04F0DECF05F0DECF06F018
:1012500015C0D9FF16C0DAFFDF50076E170E086EF3
:10126000000E096E180E0A6E000E0B6E190E0C6E33
:10127000000E0D6E1A0E0E6E000E0F6EBFEC0AF011
:1012800017C003FF18C004FF19C001FF1AC002FFF6
:1012900020EE05F01550D9261650DA22DF500F0146
:1012A000056F20EE06F01550D9261650DA22DF50D1
:1012B000066F20EE07F01550D9261650DA22DF50BF
:1012C000076F20EE08F01550D9261650DA22DF50AD
:1012D000086F20EE09F01550D9261650DA22DF509B
:1012E000096F20EE0AF01550D9261650DA22DF5089
:1012F0000A6F20EE0BF01550D9261650DA22DF5077
:101300000B6F20EE0CF01550D9261650DA22DF5064
:101310000C6F20EE0DF01550D9261650DA22DF5052
:101320000D6F008790EF08F01200000E186E60AE8F
:101330009CEF09F09EEF09F02AEF0AF062A6A3EFF6
:1013400009F0A5EF09F0C4EF09F016C0D9FF17C0E6
:10135000DAFF020EDF6E64CF03F061CF04F062CFDC
:1013600005F0635079EC0BF020EE01F01650D92611
:101370001750DA2203C0DEFF04C0DEFF05C0DEFF27
:1013800006C0DEFFDDEF09F016C0D9FF17C0DAFF97
:10139000010EDF6E62CF03F06150CFEC0CF020EE57
:1013A00001F01650D9261750DA2203C0DEFF04C020
:1013B000DEFF05C0DEFF06C0DEFF20EE05F01650A2
:1013C000D9261750DA2265CFDFFF20EE06F016503F
:1013D000D9261750DA2266CFDFFF20EE07F016502D
:1013E000D9261750DA2267CFDFFF20EE08F016501B
:1013F000D9261750DA2268CFDFFF20EE09F0165009
:10140000D9261750DA2269CFDFFF20EE0AF01650F6
:10141000D9261750DA226ACFDFFF20EE0BF01650E4
:10142000D9261750DA226BCFDFFF20EE0CF01650D2
:10143000D9261750DA226CCFDFFF20EE0DF01650C0
:10144000D9261750DA226DCFDFFF609E010E186E8D
:10145000BDEF0AF00F0130AF30EF0AF032EF0AF0C3
:10146000BDEF0AF032A737EF0AF039EF0AF058EF74
:101470000AF016C0D9FF17C0DAFF020EDF6E34CFB4
:1014800003F031CF04F032CF05F0335179EC0BF09B
:1014900020EE01F01650D9261750DA2203C0DEFFE5
:1014A00004C0DEFF05C0DEFF06C0DEFF71EF0AF0FC
:1014B00016C0D9FF17C0DAFF010EDF6E32CF03F07E
:1014C0003151CFEC0CF020EE01F01650D926175018
:1014D000DA2203C0DEFF04C0DEFF05C0DEFF06C067
:1014E000DEFF20EE05F01650D9261750DA2235CF50
:1014F000DFFF20EE06F01650D9261750DA2236CF3D
:10150000DFFF20EE07F01650D9261750DA2237CF2A
:10151000DFFF20EE08F01650D9261750DA2238CF18
:10152000DFFF20EE09F01650D9261750DA2239CF06
:10153000DFFF20EE0AF01650D9261750DA223ACFF4
:10154000DFFF20EE0BF01650D9261750DA223BCFE2
:10155000DFFF20EE0CF01650D9261750DA223CCFD0
:10156000DFFF20EE0DF01650D9261750DA223DCFBE
:10157000DFFF0F01309F26EF0AF018501200020E15
:101580000718D8A4C6EF0AF0C8EF0AF04BEF0BF02B
:101590000AC0D9FF0BC0DAFF03C0DFFF03C010F0A1
:1015A00004C011F005C012F006C013F011C010F015
:1015B00012C011F013C012F0136A10C003F011C072
:1015C00004F012C005F013C006F008C0D9FF09C02E
:1015D000DAFF03C0DFFF03C010F004C011F005C044
:1015E00012F006C013F011C010F012C011F013C0B9
:1015F00012F0136A10C003F011C004F012C005F01D
:1016000013C006F00350030B146E03C010F004C0A7
:1016100011F005C012F006C013F0030ED89010367A
:10162000113612361336E82E0EEF0BF010C003F011
:1016300011C004F012C005F013C006F00350E00B17
:101640001424146E1450080F146E1450EB0B0EC0BB
:10165000D9FF0FC0DAFFDF6E03C010F004C011F035
:1016600005C012F006C013F011C010F012C011F046
:1016700013C012F0136A10C003F011C004F012C0BE
:1016800005F013C006F00CC0D9FF0DC0DAFF03C08F
:10169000DFFF78EF0BF008C0D9FF09C0DAFF000EBA
:1016A000DF6E0AC0D9FF0BC0DAFF000EDF6E03C089
:1016B00010F004C011F005C012F006C013F0050EC2
:1016C000D8901036113612361336E82E60EF0BF034
:1016D00010C003F011C004F012C005F013C006F0F2
:1016E0000EC0D9FF0FC0DAFF03C0DFFF2CEF0BF0F5
:1016F00012000B6E000E126E000E136E000E146EB2
:10170000000E156E0550030B106E0538E842070BEE
:10171000116E0450076E086AD89007360836D890C4
:1017200007360836D8900736083607C012F008C0CA
:1017300013F0000E13BEFF0E146E156E115012241E
:10174000126E000E1320136E000E1420146E000E85
:101750001520156E12C007F013C008F014C009F070
:1017600015C00AF0020ED8900736083609360A3638
:10177000E82EB3EF0BF007C012F008C013F009C059
:1017800014F00AC015F010501224126E000E13202F
:10179000136E000E1420146E000E1520156E12C06C
:1017A00008F013C009F014C00AF0076A07C012F06D
:1017B00008C013F009C014F00AC015F00B50122431
:1017C000126E000E1320136E000E1420146E000E05
:1017D0001520156E12C008F013C009F014C00AF0ED
:1017E000076A07C012F008C013F009C014F00AC05D
:1017F00015F003501224126E000E1320136E000E0B
:101800001420146E000E1520156E12C00CF013C0BB
:101810000DF014C00EF015C00FF00CC003F00DC099
:1018200004F00EC005F00FC006F01200800E6F6EBF
:101830006E50E00B800AD8A420EF0CF022EF0CF0E1
:1018400018EF0CF0000E726E200E706E000E0E017E
:10185000FA6F000EFB6F000EF86F000EF96F000EAE
:10186000FE6F000EFF6F000EFC6F000EFD6F000E8E
:10187000E26F000EE36F000EE06F000EE16F000EEE
:10188000E66F000EE76F000EE46F000EE56F000ECE
:10189000EA6F000EEB6F000EE86F000EE96F000EAE
:1018A000EE6F000EEF6F000EEC6F000EED6F000E8E
:1018B000F26F000EF36F000EF06F000EF16F000E6E
:1018C000F66F000EF76F000EF46F000EF56F000E4E
:1018D000436F980E446F010E456FFC0E036E1A0E97
:1018E000046E77EC0DF0779C768C000E6F6E6ECFE9
:1018F00005F0E00E0516D8A480EF0CF082EF0CF096
:1019000077EF0CF0120065EC0DF0F28EF28C690EA0
:101910001C6E000E1D6E000E1E6E000E1F6E010E60
:101920001B6E010E206EFE0E216E1B0E156E000E3C
:10193000166E08EC08F0000E036E010E3DEC0DF083
:10194000290E166E000E176E95EC09F00009D8B43A
:10195000ACEF0CF0AEEF0CF0BEEF0CF0020E2F026D
:10196000F3502F6ED8903032020E3126020E325EC6
:10197000290E156E000E166E08EC08F01B0E156E83
:10198000000E166E08EC08F0212A030E046EE80E15
:10199000036E26EC0DF0A0EF0CF026EF00F0096EC0
:1019A0000950076E086AD89007360836D89007366F
:1019B0000836D8900736083607C00EF008C00FF07A
:1019C000000E0FBEFF0E106E116E03C007F0050E65
:1019D000086ED8900732082EE9EF0CF007500E245D
:1019E0000E6E000E0F200F6E000E1020106E000EF7
:1019F0001120116E0EC00AF00FC00BF010C00CF0D9
:101A000011C00DF00AC003F00BC004F00CC005F0CB
:101A10000DC006F01200000E8D6E000E8C6E000ED2
:101A2000896E000E8A6E000E8B6E000E966E000E92
:101A3000926EC80E936E1F0E946E95680F015D69CD
:101A40007F0E5C6F000E5B6FF18E12002FEF0DF0BA
:101A5000030E056E980EE82EFED7052EFCD7030662
:101A6000D8A00406032806E10428D8A43AEF0DF014
:101A70003CEF0DF028EF0DF01200066E06C004F0EA
:101A800003C005F0042A47EF0DF0D8900536042E68
:101A900045EF0DF00550816E120002D85AEF0DF09F
:101AA0000500FA6E3750FD6E3850FE6EF850FF6E2E
:101AB000FA501200779C1200386A376A39903992CE
:101AC000000EF86E000183EF0CF07CEC0DF00BECD7
:101AD0000DF06EEC0DF016EC0CF01200600ED36EF3
:101AE000000ED26E000E9B6E000E9A6E120003C0A6
:0E1AF00037F004C038F01200D09E1200120031
:020000040020DA
:08000000FFFFFFFFFFFFFFFF00
:020000040030CA
:0E00000015087F7CFF8991FF0FC00FE00F40B5
:00000001FF
