:0400000026EF00F0F7
:100008002F82FACF01F0FBCF02F0F2AC0EEF00F036
:1000180010EF00F020EF00F076AC15EF00F017EFCE
:1000280000F020EF00F077AC1CEF00F01EEF00F0BE
:1000380020EF00F04FEC0BF002C0FBFF01C0FAFF0D
:080048002F92110078EF0BF07C
:0F1000000053746174652069732025640A000031
:10101000000E176E000E186E000E196E000E1A6E7E
:101020000F0120B716EF08F018EF08F092EF08F064
:1010300020EE01F01550D9261650DA22DECF03F04B
:10104000DECF04F0DECF05F0DECF06F015C0D9FF0D
:1010500016C0DAFFDF50076E170E086E000E096E1D
:10106000180E0A6E000E0B6E190E0C6E000E0D6E31
:101070001A0E0E6E000E0F6E95EC09F017C023FFCE
:1010800018C024FF19C021FF1AC022FF20EE05F06E
:101090001550D9261650DA22DF500F01256F20EEA9
:1010A00006F01550D9261650DA22DF50266F20EEB2
:1010B00007F01550D9261650DA22DF50276F20EEA0
:1010C00008F01550D9261650DA22DF50286F20EE8E
:1010D00009F01550D9261650DA22DF50296F20EE7C
:1010E0000AF01550D9261650DA22DF502A6F20EE6A
:1010F0000BF01550D9261650DA22DF502B6F20EE58
:101100000CF01550D9261650DA22DF502C6F20EE45
:101110000DF01550D9261650DA22DF502D6F20879A
:1011200094EF09F010B797EF08F099EF08F013EF7C
:1011300009F020EE01F01550D9261650DA22DECF44
:1011400003F0DECF04F0DECF05F0DECF06F015C0F1
:10115000D9FF16C0DAFFDF50076E170E086E000EBB
:10116000096E180E0A6E000E0B6E190E0C6E000E34
:101170000D6E1A0E0E6E000E0F6E95EC09F017C074
:1011800013FF18C014FF19C011FF1AC012FF20EE80
:1011900005F01550D9261650DA22DF500F01156FD1
:1011A00020EE06F01550D9261650DA22DF50166FC1
:1011B00020EE07F01550D9261650DA22DF50176FAF
:1011C00020EE08F01550D9261650DA22DF50186F9D
:1011D00020EE09F01550D9261650DA22DF50196F8B
:1011E00020EE0AF01550D9261650DA22DF501A6F79
:1011F00020EE0BF01550D9261650DA22DF501B6F67
:1012000020EE0CF01550D9261650DA22DF501C6F54
:1012100020EE0DF01550D9261650DA22DF501D6F42
:10122000108790EF08F000B718EF09F01AEF09F0F7
:1012300094EF09F020EE01F01550D9261650DA226D
:10124000DECF03F0DECF04F0DECF05F0DECF06F018
:1012500015C0D9FF16C0DAFFDF50076E170E086EF3
:10126000000E096E180E0A6E000E0B6E190E0C6E33
:10127000000E0D6E1A0E0E6E000E0F6E95EC09F03C
:1012800017C003FF18C004FF19C001FF1AC002FFF6
:1012900020EE05F01550D9261650DA22DF500F0146
:1012A000056F20EE06F01550D9261650DA22DF50D1
:1012B000066F20EE07F01550D9261650DA22DF50BF
:1012C000076F20EE08F01550D9261650DA22DF50AD
:1012D000086F20EE09F01550D9261650DA22DF509B
:1012E000096F20EE0AF01550D9261650DA22DF5089
:1012F0000A6F20EE0BF01550D9261650DA22DF5077
:101300000B6F20EE0CF01550D9261650DA22DF5064
:101310000C6F20EE0DF01550D9261650DA22DF5052
:101320000D6F008790EF08F01200020E0718D8A486
:101330009CEF09F09EEF09F021EF0AF00AC0D9FFF7
:101340000BC0DAFF03C0DFFF03C010F004C011F0D0
:1013500005C012F006C013F011C010F012C011F059
:1013600013C012F0136A10C003F011C004F012C0D1
:1013700005F013C006F008C0D9FF09C0DAFF03C0AA
:10138000DFFF03C010F004C011F005C012F006C06A
:1013900013F011C010F012C011F013C012F0136A54
:1013A00010C003F011C004F012C005F013C006F025
:1013B0000350030B146E03C010F004C011F005C0FD
:1013C00012F006C013F0030ED89010361136123604
:1013D0001336E82EE4EF09F010C003F011C004F05A
:1013E00012C005F013C006F00350E00B1424146E75
:1013F0001450080F146E1450EB0B0EC0D9FF0FC021
:10140000DAFFDF6E03C010F004C011F005C012F067
:1014100006C013F011C010F012C011F013C012F08A
:10142000136A10C003F011C004F012C005F013C01D
:1014300006F00CC0D9FF0DC0DAFF03C0DFFF4EEF8E
:101440000AF008C0D9FF09C0DAFF000EDF6E0AC03B
:10145000D9FF0BC0DAFF000EDF6E03C010F004C02E
:1014600011F005C012F006C013F0050ED89010362A
:10147000113612361336E82E36EF0AF010C003F09C
:1014800011C004F012C005F013C006F00EC0D9FF61
:101490000FC0DAFF03C0DFFF02EF0AF01200800E78
:1014A0006F6E6E50E00B800AD8A459EF0AF05BEF24
:1014B0000AF051EF0AF0000E726E200E706E000EF0
:1014C0000E01FA6F000EFB6F000EF86F000EF96F41
:1014D000000EFE6F000EFF6F000EFC6F000EFD6F22
:1014E000000EE26F000EE36F000EE06F000EE16F82
:1014F000000EE66F000EE76F000EE46F000EE56F62
:10150000000EEA6F000EEB6F000EE86F000EE96F41
:10151000000EEE6F000EEF6F000EEC6F000EED6F21
:10152000000EF26F000EF36F000EF06F000EF16F01
:10153000000EF66F000EF76F000EF46F000EF56FE1
:10154000000E436F980E446F010E456F5E0E036EE2
:10155000170E046EA8EC0BF0779C768C000E6F6E65
:101560006ECF05F0E00E0516D8A4B9EF0AF0BBEF78
:101570000AF0B0EF0AF012005EEC0BF0F28EF28C83
:10158000690E1E6E000E1F6E000E206E000E216E84
:10159000010E1D6E020E226E000E036E010E2FEC68
:1015A0000BF00A0E6BEC0BF08EEC0BF003C01BF093
:1015B00004C01CF01C50236E1BC024F01D0E156EC1
:1015C000000E166E08EC08F0D00E1C5CD8A0EBEFF5
:1015D0000AF0EEEF0AF0010EEFEF0AF0000E036ED4
:1015E000020E3FEC0BF0000E046E320E036E18EC90
:1015F0000BF0D1EF0AF026EF00F0000E8D6E000E1A
:101600008C6E000E896E000E8A6E000E8B6E000EC0
:10161000966E000E926EC90E936E1F0E946E9568B4
:101620000F015D697F0E5C6F000E5B6FF18E120023
:1016300021EF0BF0030E056E980EE82EFED7052E57
:10164000FCD70306D8A00406032806E10428D8A482
:101650002CEF0BF02EEF0BF01AEF0BF01200066ED2
:1016600006C004F003C005F0042A39EF0BF0D8904F
:101670000536042E37EF0BF00550816E1200066E12
:1016800006C004F003C005F0042A49EF0BF0D8901F
:101690000536042E47EF0BF00550806E120002D87D
:1016A0005CEF0BF00500FA6E2D50FD6E2E50FE6EB5
:1016B000F850FF6EFA501200779C1200ADEC0BF060
:1016C000FDEC0AF098EC0BF0A1EC0BF083EC0BF0C6
:1016D0004FEC0AF01200046E04C003F00346034608
:1016E000C2500318830B0318C26EC280C28212005C
:1016F0002E6A2D6A2C6A2B6A2F902F92000EF86E9C
:101700000001BCEF0AF0010EC26E000EC16E390E70
:10171000C06E000EC46E000EC36E1200C450066E82
:10172000056AC3500524036E000E0620046E1200E5
:10173000600ED36E000ED26E000E9B6E000E9A6E7F
:101740001200000EBB6E000EBD6E000EBC6E1200CD
:1017500003C02DF004C02EF01200D09E1200120023
:020000040020DA
:08000000FFFFFFFFFFFFFFFF00
:020000040030CA
:0E00000015087F7CFF8991FF0FC00FE00F40B5
:00000001FF
