:0400000026EF00F0F7
:100008004282FACF01F0FBCF02F0F2AC0EEF00F023
:1000180010EF00F020EF00F076AC15EF00F017EFCE
:1000280000F020EF00F077AC1CEF00F01EEF00F0BE
:1000380020EF00F02DEC0CF002C0FBFF01C0FAFF2E
:0800480042921100DDEF0BF004
:0F1000000053746174652069732025640A000031
:10101000000E176E000E186E000E196E000E1A6E7E
:101020000F0120B716EF08F018EF08F092EF08F064
:1010300020EE01F01550D9261650DA22DECF03F04B
:10104000DECF04F0DECF05F0DECF06F015C0D9FF0D
:1010500016C0DAFFDF50076E170E086E000E096E1D
:10106000180E0A6E000E0B6E190E0C6E000E0D6E31
:101070001A0E0E6E000E0F6E95EC09F017C023FFCE
:1010800018C024FF19C021FF1AC022FF20EE05F06E
:101090001550D9261650DA22DF500F01256F20EEA9
:1010A00006F01550D9261650DA22DF50266F20EEB2
:1010B00007F01550D9261650DA22DF50276F20EEA0
:1010C00008F01550D9261650DA22DF50286F20EE8E
:1010D00009F01550D9261650DA22DF50296F20EE7C
:1010E0000AF01550D9261650DA22DF502A6F20EE6A
:1010F0000BF01550D9261650DA22DF502B6F20EE58
:101100000CF01550D9261650DA22DF502C6F20EE45
:101110000DF01550D9261650DA22DF502D6F20879A
:1011200094EF09F010B797EF08F099EF08F013EF7C
:1011300009F020EE01F01550D9261650DA22DECF44
:1011400003F0DECF04F0DECF05F0DECF06F015C0F1
:10115000D9FF16C0DAFFDF50076E170E086E000EBB
:10116000096E180E0A6E000E0B6E190E0C6E000E34
:101170000D6E1A0E0E6E000E0F6E95EC09F017C074
:1011800013FF18C014FF19C011FF1AC012FF20EE80
:1011900005F01550D9261650DA22DF500F01156FD1
:1011A00020EE06F01550D9261650DA22DF50166FC1
:1011B00020EE07F01550D9261650DA22DF50176FAF
:1011C00020EE08F01550D9261650DA22DF50186F9D
:1011D00020EE09F01550D9261650DA22DF50196F8B
:1011E00020EE0AF01550D9261650DA22DF501A6F79
:1011F00020EE0BF01550D9261650DA22DF501B6F67
:1012000020EE0CF01550D9261650DA22DF501C6F54
:1012100020EE0DF01550D9261650DA22DF501D6F42
:10122000108790EF08F000B718EF09F01AEF09F0F7
:1012300094EF09F020EE01F01550D9261650DA226D
:10124000DECF03F0DECF04F0DECF05F0DECF06F018
:1012500015C0D9FF16C0DAFFDF50076E170E086EF3
:10126000000E096E180E0A6E000E0B6E190E0C6E33
:10127000000E0D6E1A0E0E6E000E0F6E95EC09F03C
:1012800017C003FF18C004FF19C001FF1AC002FFF6
:1012900020EE05F01550D9261650DA22DF500F0146
:1012A000056F20EE06F01550D9261650DA22DF50D1
:1012B000066F20EE07F01550D9261650DA22DF50BF
:1012C000076F20EE08F01550D9261650DA22DF50AD
:1012D000086F20EE09F01550D9261650DA22DF509B
:1012E000096F20EE0AF01550D9261650DA22DF5089
:1012F0000A6F20EE0BF01550D9261650DA22DF5077
:101300000B6F20EE0CF01550D9261650DA22DF5064
:101310000C6F20EE0DF01550D9261650DA22DF5052
:101320000D6F008790EF08F01200020E0718D8A486
:101330009CEF09F09EEF09F021EF0AF00AC0D9FFF7
:101340000BC0DAFF03C0DFFF03C010F004C011F0D0
:1013500005C012F006C013F011C010F012C011F059
:1013600013C012F0136A10C003F011C004F012C0D1
:1013700005F013C006F008C0D9FF09C0DAFF03C0AA
:10138000DFFF03C010F004C011F005C012F006C06A
:1013900013F011C010F012C011F013C012F0136A54
:1013A00010C003F011C004F012C005F013C006F025
:1013B0000350030B146E03C010F004C011F005C0FD
:1013C00012F006C013F0030ED89010361136123604
:1013D0001336E82EE4EF09F010C003F011C004F05A
:1013E00012C005F013C006F00350E00B1424146E75
:1013F0001450080F146E1450EB0B0EC0D9FF0FC021
:10140000DAFFDF6E03C010F004C011F005C012F067
:1014100006C013F011C010F012C011F013C012F08A
:10142000136A10C003F011C004F012C005F013C01D
:1014300006F00CC0D9FF0DC0DAFF03C0DFFF4EEF8E
:101440000AF008C0D9FF09C0DAFF000EDF6E0AC03B
:10145000D9FF0BC0DAFF000EDF6E03C010F004C02E
:1014600011F005C012F006C013F0050ED89010362A
:10147000113612361336E82E36EF0AF010C003F09C
:1014800011C004F012C005F013C006F00EC0D9FF61
:101490000FC0DAFF03C0DFFF02EF0AF012003C507A
:1014A0003CEC0CF03C50A5EC0BF003C031F004C058
:1014B00032F03950D8B45FEF0AF061EF0AF063EF11
:1014C0000AF02D4A2E2A40502D5C41502E58D8A0AB
:1014D0006CEF0AF06EEF0AF074EF0AF0000E396E4E
:1014E000000E2E6E000E2D6E31502F5C3250305893
:1014F000D8B07DEF0AF07FEF0AF083EF0AF0010E1B
:101500003B6E85EF0AF0000E3B6E3A503B18D8B4A4
:101510008CEF0AF08EEF0AF0CEEF0AF03B50D8B411
:1015200094EF0AF096EF0AF0B4EF0AF03950D8A41D
:101530009CEF0AF09EEF0AF0B4EF0AF002D8AEEF8B
:101540000AF00500FA6E2B50FD6E2C50FE6EF8501E
:10155000FF6EFA50010E1B6E3D501200010E396EE7
:10156000000E2E6E000E2D6E3B50D8A4BAEF0AF07E
:10157000BCEF0AF0CCEF0AF002D8CCEF0AF005007D
:10158000FA6E2B50FD6E2C50FE6EF850FF6EFA5026
:10159000000E1B6E3D5012003BC03AF01200800E50
:1015A0006F6E6E50E00B800AD8A4D9EF0AF0DBEF23
:1015B0000AF0D1EF0AF0000E726E200E706E000E6F
:1015C0000E01FA6F000EFB6F000EF86F000EF96F40
:1015D000000EFE6F000EFF6F000EFC6F000EFD6F21
:1015E000000EE26F000EE36F000EE06F000EE16F81
:1015F000000EE66F000EE76F000EE46F000EE56F61
:10160000000EEA6F000EEB6F000EE86F000EE96F40
:10161000000EEE6F000EEF6F000EEC6F000EED6F20
:10162000000EF26F000EF36F000EF06F000EF16F00
:10163000000EF66F000EF76F000EF46F000EF56FE0
:10164000000E436F980E446F010E456F160E036E29
:10165000190E046E7BEC0CF0779C768C000E6F6E8E
:101660006ECF05F0E00E0516D8A439EF0BF03BEF76
:101670000BF030EF0BF012001C6E1B50D8B443EF90
:101680000BF045EF0BF05BEF0BF0690E1E6E000EDA
:101690001F6E000E206E000E216E010E1D6E020EDA
:1016A000226E1CC023F01BC024F01D0E156E000E10
:1016B000166E08EC08F01BC003F0020E0DEC0CF0E7
:1016C000000E046E320E036EF6EC0BF0120049ECC5
:1016D0000CF0F28EF28C000E036E010E1DEC0CF07D
:1016E0000A0E056ED00E076E000E066E270E096EEE
:1016F000100E086E420E87EC0BF0780E2B6E160E55
:101700002C6E4FEC0AF07DEF0BF026EF00F00A6E26
:101710000A5080EC0CF0055084EC0CF006C003F08D
:1017200007C004F071EC0CF008C003F009C004F02D
:1017300076EC0CF0000E3A6E000E396E000E2E6E36
:10174000000E2D6E000E3B6E1200076E07C005F0F6
:1017500005460546C2500518830B0518C26EC280A7
:10176000C282C2B2B6EF0BF0B8EF0BF0B1EF0BF0E4
:10177000C450066E056AC3500524036E000E062091
:10178000046E1200000E8D6E000E8C6E000E896EBF
:10179000000E8A6E000E8B6E000E966E000E926E1C
:1017A000C90E936E1F0E946E95680F015D697F0ED2
:1017B0005C6F000E5B6FF18E1200140EF66E190E48
:1017C000F76E000EF86E0900F5CF40F00900F5CF76
:1017D00041F000EE2DF0130EEE6AE806FDE14290B6
:1017E0004292000EF86E000167EF0BF0FFEF0BF076
:1017F000030E056E980EE82EFED7052EFCD70306C5
:10180000D8A00406032806E10428D8A40AEF0CF0A7
:101810000CEF0CF0F8EF0BF01200066E06C004F0AF
:1018200003C005F0042A17EF0CF0D8900536042EFB
:1018300015EF0CF00550806E1200066E06C004F025
:1018400003C005F0042A27EF0CF0D8900536042ECB
:1018500025EF0CF00550816E120002D83AEF0CF023
:101860000500FA6E3750FD6E3850FE6EF850FF6E70
:10187000FA501200779C1200046E04C003F0034675
:101880000346C2500318830B0318C26EC280C28283
:10189000120088EC0CF0C2EC0BF061EC0CF06AEC7E
:1018A0000CF056EC0CF0CFEC0AF01200010EC26EF8
:1018B000000EC16E390EC06E000EC46E000EC36EF7
:1018C0001200600ED36E000ED26E000E9B6E000EE4
:1018D0009A6E1200000EBB6E000EBD6E000EBC6E46
:1018E000120003C02FF004C030F0120003C040F01B
:1018F00004C041F0120003C037F004C038F01200F9
:10190000036E03C03DF01200036E03C03CF01200F2
:08191000D09E12001027120006
:020000040020DA
:08000000FFFFFFFFFFFFFFFF00
:020000040030CA
:0E00000015087F7CFF8991FF0FC00FE00F40B5
:00000001FF
